:020000040800F2
:10000000000400206D030008111700087913000890
:10001000FD16000893040008651A0008000000009F
:100020000000000000000000000000008B18000825
:100030000D070008000000008918000821190008B9
:100040008703000887030008870300088703000868
:100050008703000887030008870300088703000858
:100060008703000887030008870300088703000848
:100070008703000887030008870300088703000838
:100080008703000887030008870300088703000828
:100090008703000887030008870300088703000818
:1000A0008703000887030008870300088703000808
:1000B00087030008870300088703000887030008F8
:1000C00087030008870300088703000887030008E8
:1000D00087030008870300088703000887030008D8
:1000E000870300088703000800000000870300085A
:1000F00087030008870300088703000887030008B8
:1001000087030008870300088703000887030008A7
:100110008703000887030008870300088703000897
:100120008703000887030008870300088703000887
:100130008703000887030008870300088703000877
:1001400000000000000000000000000000000000AF
:100150008703000887030008870300088703000857
:100160008703000887030008870300088703000847
:1001700087030008870300088703000800000000C9
:100180008703000887030008870300088703000827
:100190008703000887030008870300088703000817
:1001A0008703000887030008870300080000000099
:1001B00087030008870300088703000887030008F7
:1001C000870300088703000800000000000000000B
:1001D000000000000000000087030008000000008D
:1001E000000000000000000000000000000000000F
:1001F00000000000000000008703000887030008DB
:100200008703000887030008000000008703000838
:100210008703000887030008870300088703000896
:1002200087030008000000008703000800000000AA
:100230008703000887030008000000008703000808
:100240008703000887030008870300088703000866
:100250008703000887030008870300088703000856
:100260008703000887030008870300088703000846
:1002700087030008870300088703000800000000C8
:100280008703000887030008870300088703000826
:10029000000000008703000887030008000000003A
:1002A0000000000087030008870300088703000898
:1002B00087030008870300088703000887030008F6
:1002C00087030008870300088703000800F002F88E
:1002D00000F03CF80AA090E8000C82448344AAF1A4
:1002E0000107DA4501D100F031F8AFF2090EBAE8A2
:1002F0000F0013F0010F18BFFB1A43F0010318475A
:100300000020000030200000103A24BF78C878C1D7
:10031000FAD8520724BF30C830C144BF04680C600B
:10032000704700000023002400250026103A28BF53
:1003300078C1FBD8520728BF30C148BF0B60704757
:100340001FB501F039FF1FBD10B510BD00F06CF8EE
:100350001146FFF7F5FF01F091FB00F08AF803B4B6
:10036000FFF7F2FF03BC00F08DF80000094880475A
:1003700009480047FEE7FEE7FEE7FEE7FEE7FEE787
:10038000FEE7FEE7FEE7FEE704480549054A064B9F
:1003900070470000CD190008CD020008C0000024FD
:1003A00000040020C0020024000000204FF00002E2
:1003B00000B5134694469646203922BFA0E80C505B
:1003C000A0E80C50B1F12001BFF4F7AF090728BF36
:1003D000A0E80C5048BF0CC05DF804EB890028BFB2
:1003E00040F8042B08BF704748BF20F8022B11F0DB
:1003F000804F18BF00F8012B704770477047704757
:1004000010B500F009F8006810BD10B5044600F002
:1004100003F8046010BD0000004870474800002445
:1004200000487047480000247546FFF7F9FFAE46C4
:1004300005006946534620F00700854618B020B5F0
:10044000FFF7A2FFBDE820404FF000064FF0000785
:100450004FF000084FF0000BAC46ACE8C009ACE828
:10046000C009ACE8C009ACE8C00921F007018D461D
:10047000704710B50446AFF300802046BDE8104039
:10048000FFF76DBF01491820ABBEFEE72600020052
:100490007047FEE780B5B7EEC00A01F079FB30EE99
:1004A000000BB7EEC00B80BD80B5B7EEC00A01F0FF
:1004B0006FFB30EE000BB7EEC00B80BD10B52DED1D
:1004C000088BB1EE081A30EEA02A9FED404A20EECC
:1004D000A03A30EE005A3E4C22EE019A9FED3D2AA2
:1004E00000EE003A84ED030A25EE01AA29EE091A6E
:1004F00033EE043AC4ED040A0AEE0A1A33EE02BAE5
:100500000BEE4B1AB7EEC18AB0EE480B01F00CFBB4
:10051000B4EE400BB7EEC99AF1EE10FA03D0B0EE8C
:10052000480B01F001FB3AEE0B1A30EE090BB7EE67
:10053000C1AA80EE0A0BB7EEC00BFFF7ABFF94ED3C
:10054000001A20EE010A84ED050AB0EE480B01F016
:10055000EBFAB4EE400BF1EE10FA03D0B0EE480B1C
:1005600001F0E2FA39EE400B80EE0A0BB7EEC00B59
:10057000FFF790FF94ED001A9FED172A20EE011A65
:1005800084ED061A94ED050AB4EEC20AF1EE10FAF3
:1005900006DB9FED123AB4EEC30AF1EE10FA12DD5B
:1005A0009FED0E0A9FED0E3AB4EEC01AB0EE430A6C
:1005B000F1EE10FAB4EEC21AD8BFB0EE410AF1EE75
:1005C00010FA20FE030ABDEC088B10BD000010429B
:1005D000200000240000C8C20000B4C2000087430D
:1005E0000000B44210B52DED088B9FED421A9FED2F
:1005F000424AB1EE082A30EEA03A404C23EE029A6D
:1006000029EE095A30EE011A84ED030AC4ED040AFA
:1006100001EE014A31EE013A9FED391A00EEA04A8F
:1006200023EE02AA34EE01BA0AEE0A5A0BEE4B5A36
:10063000B7EEC58AB0EE480B01F076FAB4EE400B87
:10064000B7EEC99AF1EE10FA03D0B0EE480B01F004
:100650006BFA3AEE0B1A30EE090BB7EEC1AA80EE38
:100660000A0BB7EEC00BFFF71FFF94ED001A20EE48
:10067000010A84ED070AB0EE480B01F055FAB4EE1A
:10068000400BF1EE10FA03D0B0EE480B01F04CFA3B
:1006900039EE400B80EE0A0BB7EEC00BFFF704FFFC
:1006A00094ED001A9FED172A20EE011A84ED081A26
:1006B00094ED070AB4EEC20AF1EE10FA06DB9FEDE4
:1006C000123AB4EEC30AF1EE10FA10DD9FED0E0AF5
:1006D000B4EEC01AB0EE403AF1EE10FAB4EEC21A1F
:1006E000D8BFB0EE413AF1EE10FA23FE000ABDEC9D
:1006F000088B10BD333373C000001042200000246B
:100700000000C8C20000B4C20000B442704700003C
:1007100070B505466E1C00F0E1F804461EB19A481B
:100720000078054401E04FF0FF3500F0D7F8001BDA
:10073000A842FAD370BD00BF2DE9FC4F5D4A0A27DD
:100740004FF0000B4FF0010E4FF0030A4FF00F096E
:100750004FF0000C904208BF0927574A02444FEA65
:10076000B223082B38BF4FEAB227009700270A6848
:1007700032FA07F308BFBDE8FC8F0EFA07F312EA5E
:10078000030400F090804D6805F00302A2F1010817
:10079000B8F1010F18D8D0F80890CE680AFA0CF812
:1007A00029EA080806FA0CF64FF00F0946EA08068F
:1007B0008660C5F3001606FA07F8466826EA0303C2
:1007C00043EA0803436001E0032A1DD0C6680AFA21
:1007D0000CF3022A26EA03038E6806FA0CF643EAB3
:1007E0000603C36010D1354D0BF01C0209FA02F369
:1007F00005EA570505442E6A26EA03030E6906FA40
:1008000002F21A432A624D68066805F003020AFAEA
:100810000CF315F4403F02FA0CF226EA030342EA15
:10082000030202603FD0834A0BF00C0609FA06F57A
:10083000136843F002031360126802F0020201928F
:10084000019A1F4B27F0030252F8038028EA05089B
:10085000009D05FA06F648EA0605D5504FF0B0456A
:100860002A684B68A24313F4801F18BF224313F475
:10087000001F2A60134A156825EA040518BF25439E
:1008800013F4003F1560D2F8805025EA040518BF24
:10089000254313F4803FC2F88050D56F25EA040544
:1008A00018BF2543D5670BF1040B0CF1020C01377F
:1008B0005DE700BF002402580000FEA7FCFFFF7F99
:1008C00008040058040000580069084018BF0120BF
:1008D0007047002A08BF0904816170472A48806870
:1008E000704700BF284801788268114481607047D2
:1008F00080B5032000F0CCF800F014FA0F49104B3B
:100900000A68C2F3032209689A5C01F00F01595C7E
:1009100002F01F02D0400B4A01F01F0120FA01F142
:1009200011601A4908600F2000F00EF808B101208C
:1009300080BD00F071F8002080BD00BF184402584F
:10094000F02200081000002470B50F4E04463078E5
:10095000B0B14FF47A71B1FBF0F0F0490968B1FB26
:10096000F0F000F0F5FC01250F2C0AD848B94FF043
:10097000FF3021460022002500F05EF8746000E0A0
:100980000125284670BD00BF000000240C00002493
:1009900010B5427812490A608A6822F001028A6022
:1009A00042684A60C37A027B847A90F800C090F86B
:1009B00008E01B0643EA0272437A42EAC442447BDF
:1009C00042EA8442847BC07B42EA444242EA0040DD
:1009D00040EA032040EA4E0040EA0C00886010BD67
:1009E00098ED00E0BFF35F8F0A48016821F4803181
:1009F0000160002101677047064940F00100086767
:100A0000086840F480300860BFF34F8FBFF36F8FEA
:100A1000704700BF24ED00E081B00648016841F056
:100A200002010160006800F002000090009801B02F
:100A3000704700BFF4440258B0B5144C1A4D00F092
:100A40000F03B0F1FF3FA3F104032B4403F10C03A8
:100A5000C8BF03192868C0F30220051DC41E80F01A
:100A60000700072D4FF0010538BF0024042828BFD8
:100A7000042005FA00F00138084005FA04F10F31AE
:100A8000A0401140084300011870B0BD00E400E030
:100A900005494FF6FF030A681A4060F30A2203482B
:100AA00010430860704700BF0CED00E00000FA053D
:100AB000B0B5114D2A68296812F0040F05D101F074
:100AC0000701081A18BF0120B0BD21F00701084333
:100AD0002860FFF703FF044655F8080C10F4005F88
:100AE0001CBF0020B0BDFFF7F9FE001BB0F57A7FF8
:100AF00084BF0120B0BDEFE70C4802582DE9F84350
:100B000004468846002C00F0FE80814B186800F0F7
:100B10000F0040450BD2186820F00F0040EA080093
:100B20001860186800F00F00404540F0EC80206825
:100B3000C74F10F0040F0AD02169BA6902F07002A1
:100B4000914281BFBA6922F070021143B961010775
:100B50000AD56169FA6902F07002914281BFFA69AF
:100B600022F070021143F961C1060AD5A169FA6940
:100B700002F4E062914281BFFA6922F4E06211431B
:100B8000F96181060AD5E1693A6A02F07002914280
:100B900081BF3A6A22F070021143396281070AD597
:100BA000E168BA6902F00F02914281BFBA6922F08E
:100BB0000F021143B961C10738D0B869A16820F4A8
:100BC00070600843B8616068032806D0022809D124
:100BD000396811F4003F0ED195E0396811F0007FBB
:100BE00009D190E03968012802D1C90503D48AE00F
:100BF000490740F188803969994621F00701084387
:100C00003861FFF76BFE064641F288353869616846
:100C100000F03800B0EBC10F06D0FFF75FFE801B7D
:100C2000A842F3D903206FE020684B4681070AD51C
:100C3000E168BA6902F00F0291423FBFBA6922F03F
:100C40000F021143B961196801F00F0141450AD93A
:100C5000196821F00F0141EA08011960196801F0D3
:100C60000F0141454FD141070AD52169BA6902F008
:100C7000700291423FBFBA6922F070021143B9611C
:100C800001070AD56169FA6902F0700291423FBF1B
:100C9000FA6922F070021143F961C1060AD5A1690F
:100CA000FA6902F4E06291423FBFFA6922F4E0621D
:100CB0001143F96180060AD5E069396A01F07001D3
:100CC00088423FBF396A21F070010843386200F062
:100CD00029F8B9690F4AC1F30321515C01F01F01E2
:100CE000C840B96901F00F01515C0B4A01F01F01C6
:100CF00020FA01F111600949086009480068BDE85F
:100D0000F443FFF721BE0120C0B201B0BDE8F0837B
:100D100000200052F0220008100000240C000024E3
:100D2000040000244A490869C0F3C20349484A4AFA
:100D3000032B10D0022B04BF4848704753B90868F2
:100D400010F0200F10461FBF0868C0F3C10022FA40
:100D500000F07047704780B5D1F828C0D1F828E07E
:100D6000CB6A486B03F001035B4203EAD003CEF386
:100D700005106FF35F33002800EE103AB8EE400A1A
:100D8000BDE8804004BF002070470CF00303022B35
:100D900020D0012B1AD0CBB902EE100A9FED311AE8
:100DA000B8EE422A086820EE010A10F0200F39D16F
:100DB000086B9FED2E1A6FF35F2081EE022A03EE7F
:100DC000100AB8EE433A30EE031A16E00A6B9FEDB4
:100DD000262A02E00A6B9FED222A01EE100A6FF329
:100DE0005F229FED203AB8EE414A01EE102AB8EE9C
:100DF000411A82EE042A00EE031A086BB7EE000ACD
:100E000031EE000A22EE000AC0F34620013001EE66
:100E1000100AB8EE411A80EE010ABCEEC00A10EECC
:100E2000100A70470868C0F3C10022FA00F00A6B8C
:100E300003EE100A6FF35F2201EE102AB8EE411A9A
:100E4000B8EE433A30EE011A83EE022AD5E700BF2E
:100E50000044025800093D000090D00340787D0115
:100E600020BCBE4B000000390024744A0024744C9E
:100E7000F8B50446002C00F07A812078CF4EC007E8
:100E80004CD03169B06A01F03801102915D0182909
:100E900004BF00F0030002280FD06068A0B1B0F5D5
:100EA000803F06D03168B0F5A02F23D141F48020D7
:100EB0003060306840F4803022E0306810F4003F49
:100EC0002CD0606850BB52E1306820F48030306034
:100ED000306820F480203060FFF700FD0546306860
:100EE00010F4003F1AD0FFF7F9FC411B03206429DE
:100EF000F5D929E221F480303060306820F4802078
:100F00003060FFF7EBFC0546306810F4003F05D178
:100F1000FFF7E4FC401B6428F6D93DE12078800708
:100F200051D53169B06A11F0380118D0182908BFBD
:100F30005FEA807013D0E068316898B321F019013E
:100F400008433060FFF7CAFC0546306810F0040F14
:100F500020D1FFF7C3FC401B0228F6D91CE1316801
:100F6000E06811F0040F02D0002800F00081316821
:100F700021F0190108433060FFF7B0FC05463068E6
:100F800010F0040F06D1FFF7A9FC411B0320022932
:100F9000F5D9D9E17068216920F0FE4040EA01608E
:100FA000706010E021F001003060FFF797FC05460B
:100FB000306810F0040F06D0FFF790FC411B0320AF
:100FC0000229F5D9C0E12078C00630D53169B06A70
:100FD00001F0380108291BD0182904BF00F00300D4
:100FE000012815D0E1693068002900F0098140F03E
:100FF00080003060FFF772FC0546306810F4807F97
:101000000ED1FFF76BFC411B03200229F5D99BE1B0
:10101000306810F4807F1CBFE069802840F0A78012
:10102000F068216A20F07C5040EA0160F06020788E
:10103000000723D56169706F79B140F001007067D6
:10104000FFF74CFC0546706F10F0020F16D1FFF74A
:1010500045FC401B0228F6D99EE020F00100706795
:10106000FFF73CFC0546706F10F0020F06D0FFF74B
:1010700035FC411B03200229F5D965E12078800663
:1010800023D5A169306879B140F480503060FFF712
:1010900025FC0546306810F4005F16D1FFF71EFCF2
:1010A000401B0228F6D977E020F480503060FFF72B
:1010B00015FC0546306810F4005F06D0FFF70EFC03
:1010C000411B03200229F5D93EE12078400750D486
:1010D000676A002F00F01F81306900F0380018287F
:1010E0006ED1B16A306B012F41D0A26A01F00303C7
:1010F00093423CD1E26AC1F30511914237D1226B90
:1011000001466FF35F21013A914230D1C0F346218D
:10111000626B013A91422AD1C0F30641A26B013AB7
:10112000914224D1C0F30660E16B013988421ED19F
:10113000706BA16CC0F3CC00814200F0EC80F06ACF
:1011400020F00100F062FFF7C9FB0546FFF7C6FB80
:10115000A842FBD0706B4FF6F8718843A16C40EA4F
:10116000C1007063F06A40F00100F062D3E001203A
:10117000EAE0D6F8000440F48070C6F80004FFF7F7
:10118000ADFB0546D6F8000410F4807F06D1FFF7CA
:10119000A5FB401B6428F5D90320D5E0A0680028F2
:1011A00040D0012806D0316F052840F0B68041F0CC
:1011B00004003067306F40F00100B4E00044025892
:1011C000306820F080703060FFF788FB0546022F02
:1011D0000AD1306810F0007F3DD0FFF77FFB411B44
:1011E00003200229F5D9AFE0306810F0007F00F04D
:1011F0009280FFF773FB411B03200229F4D9A3E07F
:1012000020F080003060FFF769FB0546306810F47D
:10121000807F3FF40CAFFFF761FB411B03200229E5
:10122000F4D991E0306F20F001003067306F20F08A
:1012300004003067FFF752FB054641F28837306FF4
:1012400010F0020F3FF444AFFFF748FB411B0320AF
:10125000B942F4D978E0B06A40F2F33104F13003D6
:101260004FF47E478843D4E90A12084340EA02104B
:10127000B0620FCB07EB412100F2FF1089B26FF390
:101280005F2008434FF4FE0101EB024101F4FE012F
:1012900008434FF0FE4101EB036101F0FE410843BA
:1012A0004FF6F8713063F06A20F00100F062706B65
:1012B0008843A16C40EAC1007063F06A216C20F0A1
:1012C0000C000843F062F06A616C20F002000843F1
:1012D000F062F06A40F48030F062F06A40F400306E
:1012E000F062F06A40F48020F062F06A40F00100A1
:1012F000F062306840F080703060FFF7EFFA04462B
:10130000306810F0007F06D1FFF7E8FA011B0320D8
:101310000229F5D918E0002016E021F0010030671D
:10132000306F20F004003067FFF7D8FA054641F22D
:101330008837306F10F0020F7FF4CAAEFFF7CEFA95
:10134000411B0320B942F4D9C0B201B0F0BD000086
:10135000411E0020B0EB116F1CBF01207047044AF2
:10136000F023516003490B700721906011607047B2
:1013700010E000E023ED00E0FEE7000070B5DE4C79
:10138000984E402100222046B047AF4980201122CC
:10139000C1E900022046FFF7CFF920468021002254
:1013A000B047914DA847A847A847204640210122B1
:1013B000B047A847A847A847204640210022334607
:1013C000BDE87040184700BFBCB5CA489E4D00221A
:1013D0000223016841F0020101601121006800F060
:1013E000020001900198402085E80F002946C24C78
:1013F0002046FFF7A1F98020294628602046FFF704
:101400009BF9204640210122FFF763FA2046802104
:10141000012202B0BDE8B040FFF75BBA70B5B64C30
:10142000704E402100222046B0478749802011227B
:10143000C1E900022046FFF77FF920468021012202
:10144000B047694DA847A847A84720464021012238
:10145000B047A847A847A847204640210022334666
:10146000BDE87040184700BF2DE9F0477649804637
:1014700080200024C1E900049F4E3046FFF75CF94C
:10148000DFF8649108254FF0010A1AE03046402148
:101490000022FFF71EFAC847C847C8473046402118
:1014A0000122FFF716FA30468021FFF70DFA0746B2
:1014B000C8476000002FA5F1010518BF4AEA4400A3
:1014C0000446002DE2D1B8F1000F02D0FFF756FF1D
:1014D00001E0FFF7A3FF2046BDE8F0872DE9F041CA
:1014E000594904464FF080081120C1E90080824D1F
:1014F0002846FFF721F92846402100220027FFF760
:10150000E8F9394E19E028FA07F0802120422846F0
:101510000CBF00220122FFF7DCF9B047B047284694
:1015200040210122FFF7D5F9B047B04728464021B6
:101530000022FFF7CEF9B0470137082FE3D1BDE80D
:10154000F04100F090BA00BF70B53F4980201122F1
:10155000C1E90002684C2046FFF7EEF8214E204614
:1015600080210122B047204640210122B0471E4D74
:10157000A847A847A847A847A84720468021002297
:10158000B047A847A847A847204640210022334635
:10159000BDE87040184700BF70B52B49802011226C
:1015A000C1E90002544C2046FFF7C6F80D4D204615
:1015B00040210022A847204680210022A8470A4E49
:1015C000B047B047B047204640210122A847B04766
:1015D000B047B047204680210122A8473046BDE8E9
:1015E00070400047D3080008671A0008B0B51649D4
:1015F00080200022C1E900023F4C2046FFF79CF802
:10160000204680210122FFF764F900F02CFA2046E1
:1016100040210122FFF75DF900F025FA4FF0FF3578
:1016200020468021FFF750F930B10135642DF7DBFA
:10163000FFF7B2FF012505E02046402100220025EA
:10164000FFF747F92846B0BDA80000242DE9F04374
:1016500087B0002600224FF40059069625480168FD
:1016600041F080010160016801F080010191019960
:10167000016841F001010160016801F0010101917F
:101680000199016841F040010160016801F04001E9
:1016900001910199016841F0020101604FF400518C
:1016A000006800F0020001900198134C04F5A05569
:1016B0002846FFF70EF92046C02101224FF0C0084E
:1016C0000127FFF706F9CDE90297CDE9046602AEDE
:1016D00028463146FFF730F81120CDF80880314612
:1016E000CDE9030720460597FFF726F807B0BDE8C8
:1016F000F08300BFE044025800040258FEE780B5C2
:1017000000F0C4F84FF47A70BDE88040FFF700B8ED
:10171000FEE780B52DED028BB0EE408AFFF754FE58
:101720000020002100F098F8B0EE480A00F028F8F8
:101730006420BDEC028BBDE88040FEF7E9BF0000ED
:1017400070B50446FFF700FF4D4D8020A8474D4E71
:10175000B0472046A847B047FFF71EFF00F083F9C7
:10176000FFF7F2FE8120A847B0470020FFF77CFE7C
:101770000446FFF711FFE0B270BD00BF000000009B
:10178000B0B52DED028B0020B0EE408AFFF7D8FFF8
:101790001D4D044604F06F0040F010010020A847E2
:1017A0009FED150BB7EEC81ABFEE002BFE2021EE01
:1017B000000B9FED131BB7EEC00BB7EEC00A81EE16
:1017C000000BB6EE001B30EE020B30EE010BBCEE50
:1017D000C00B10EE101AA84700202146A84706208B
:1017E000FEF796FF44F0A10100202A46BDEC028BD3
:1017F000BDE8B040104700BFAE47E17A14AEEF3FFE
:101800000000000084D7B740591800082DE9F041C6
:1018100090460D460646FFF797FE194F8020B847C1
:101820000C4CA047062000EB8600B847A047E8B262
:10183000B847A047280AB847A0475FFA88F0B847DA
:10184000A0474FEA1820B847A047BDE8F041FFF78E
:10185000A3BE00BFED150008F8B50C460546FFF71E
:1018600073FE074E8020B047064FB8472846B04762
:10187000B8472046B047B847BDE8F840FFF78CBEF0
:10188000DD1400081D1400087047704710B52DEDD9
:10189000048BB0EE608AB0EE409AFEF70FFE124C59
:1018A000B5EEC00A0020F1EE10FA84ED010AB8BFCF
:1018B000B1EE400ABCEEC00A10EE101A00F018F8A3
:1018C000B0EE490AF0EE480AFEF78CFEBCEEC01AF4
:1018D00084ED020A012011EE101ABDEC048BBDE864
:1018E000104000F005B800BF2000002400000000F8
:1018F0009FED090BC1F1E10101EE101A0021B8EED4
:10190000C11B21EE000BBDEEC00B10EE102AFFF73D
:101910007DBF00BF00BF00BFFD76C883E338024033
:10192000FEF7E0BF10B59CB009A84C21FEF73EFDC4
:1019300001A82021FEF73AFD0220FFF7B9F80020A8
:1019400000902148016821F440410160016801F4E0
:10195000404100910099016811F4005FFBD0012023
:101960000521002409904FF480300A900220CDE92F
:10197000120014916E21CDE91510CDE91700082051
:10198000199009A8CDE91A44FFF772FA18B1EFF3DC
:10199000108072B6FEE73F204FF480610190032073
:1019A000CDE9020440200494CDE90500CDE90710FB
:1019B00001A80321FFF7A2F818B1EFF3108072B667
:1019C000FEE71CB010BD00BF184802581E48016851
:1019D00041F4700101601D48016801F00F01062902
:1019E0009FBF0168072262F30301016010B5184927
:1019F0000A6842F001020A6000220A610B68154C75
:101A000023400B60036813F0080F1FBF036807240F
:101A100064F3030303608A61CA610A620E4B8B623E
:101A20000E4BCB620E4B0B634A638B63CA630B6432
:101A30004A640B6823F480230B600A664FF400515C
:101A400043F2D202425010BD88ED00E00020005267
:101A5000004402587FEDF6EA000202020000FF0196
:101A600080020101FEE781B000200090009832283A
:101A7000A4BF01B0704700980130F6E710B52DED16
:101A8000086B00240094FEF7ADFF01208DF80000E4
:101A900048F21F708DF801400194029040F201104D
:101AA00003906846FEF774FF0420FEF7A5FFFEF7DB
:101AB0001FFFFFF737FFFFF7C9FDFFF785FC9FED1D
:101AC0000D0AFFF726FE4FF47A70FEF721FE4FF461
:101AD000FA60FEF71DFEB9EE048AB2EE049AB0EE8B
:101AE000480AF0EE490AFFF70AFE6420FEF710FEEE
:101AF000F5E700BF0000484203B401984100009898
:101B000050EAC12018BF04204A0D18BF40F0010060
:101B100040F2FF72B2EB515F08BF40F002000128B3
:101B200008BF052002B0704700B52DED028B83B0D1
:101B3000B1EEC08B18EE100A18EE901A8DED008BE6
:101B4000002818BF0120084320F00040C0F17F604A
:101B500000F1E040C00F14D010EE101A10EE900A01
:101B60008DED000B002918BF0121084320F0004033
:101B7000C0F17F6000F1E040C00F04BF0120FEF71C
:101B800044FCB0EE480B03B0BDEC028B00BD00007E
:101B900010B51D499FED1A1B2DED020B84B0059861
:101BA00020F000408842DCBF01209DED040B21DDC8
:101BB0001649884209D1049840B94FF00100FEF758
:101BC00024FC00F0D5FA06B010BD05DB9DED040B3A
:101BD00030EE000B06B010BD68469DED040B00F022
:101BE00017F800F001000121A1EB40009DED021B60
:101BF0009DED000B00F0C8F906B010BD000000001C
:101C00000000000000000000FB21E93F0000F07F21
:101C10002DE9F14F04462DED020B2DED048B94B010
:101C20009FED9D0B80ED020B199E9D4826F000450F
:101C300085420ADC9DED180B002084ED000B14B0EA
:101C4000BDEC048B03B0BDE8F08F96489FED969BEA
:101C50009FED978BA84225DD97489FED991B9FED3F
:101C60009A2B9DED180B002E0DDD30EE490B8542B1
:101C700012BF30EE480B30EE410B30EE420B84EDDC
:101C8000000B0120DBE730EE090B854212BF30EE7E
:101C9000080B30EE010B30EE020B84ED000B4FF021
:101CA000FF30CCE78A48A84253DB9DED180B51EC7E
:101CB000100B00F075FA41EC100BB0EE401B9FEDDD
:101CC000862BB6EE000B01EE020BFDEEC00B10EE04
:101CD000903A00EE903AB8EEE02BB0EE410B02EEF7
:101CE000490B22EE081BDFF8F8C1290D0120FC4446
:101CF00030EE411B84ED001B03281DD011EE902A0D
:101D000000EB4015113DC2F30A528A1A954213DACC
:101D1000B0EE403B0CEB001292ED000B20EE021BEC
:101D200033EE410B33EE403B33EE411B92ED023B71
:101D300012EE031B401CDBE7002EA8BF1846BFF6BF
:101D40007EAF94ED000BB1EE400B84ED000B5842DA
:101D500075E7C6F3130040F4801EC6F30A50A0F2E4
:101D6000F530471100F01F05C5F12000DDF860B027
:101D7000139000200890099005200DF1080C594996
:101D8000002D07EB0002794408BF51F8221009D05A
:101D900051F8223001EB8201AB404A68139922FAD4
:101DA00001F11943A1FB0E26A1FB0B131A449A4221
:101DB00034BF0123002303EB06080CEB8003D3E9B7
:101DC00001A60E448E4234BF0121002192448A4470
:101DD00011B1924502D903E0924501D2012100E000
:101DE0000021C3E901A641444CF82010011EA0F1D6
:101DF0000100C4DC04989DED050A00F10050810F3C
:101E00000498DDED060A80009DED072A01EE100A18
:101E1000B8EEC13BB8EE401B9FED334B21EE041BE7
:101E2000B8EE600B9FED324B20EE040BB8EE422B68
:101E30009FED314B22EE042B30EE024B34EE014B82
:101E400034EE034B8DED004B002000909DED004BD8
:101E500034EE433B33EE411B31EE400B32EE401B80
:101E60009DED000B9FED262B20EE020B9FED262B08
:101E700001EE020B9DED001B9FED252B01EE020BE9
:101E8000199810F0004F1CBF4942B1EE400B84ED91
:101E9000000B0846D3E60000000000000000000030
:101EA000FB21E93F7CD9024000004054FB21F93F6F
:101EB0003163621A61B4D03DFB21F93F000000009C
:101EC0000000601A61B4D03D7370032E8A19A33BE1
:101ED000FB2139410000000083C8C96D305FE43F39
:101EE000D60400006E040000000000000000103E58
:101EF000000000000000103C000000000000103A4C
:101F00003326A611460B113C182D4454FB21F93DF4
:101F100000000054FB21F93DB0EE401B491E00EBD0
:101F2000C10292ED000B31F006020DD0491E00EB0C
:101F3000C10292ED002BB0EE403BB0EE420B03EE3F
:101F4000010B31F00602F1D1022914D004290AD084
:101F5000062918BF704790ED0A2B00EE012B90ED7B
:101F6000080B02EE010B90ED062B00EE012B90ED1D
:101F7000040B02EE010B90ED022B00EE012B90ED15
:101F8000000B02EE010B7047F1B505462DED040B79
:101F90002DED0A8B84B0B0EE418B0F9E684826F081
:101FA0000044B7EE009BBFEE00AB844207DA9DED24
:101FB0000E0BBDEEC00B10EE100A00287BD0614F57
:101FC000A7421DDC002E07DA9DED0E0BB1EE400B93
:101FD0008DED0E0BB1EE488B9DED0E0B9FED5A1B58
:101FE00031EE400B8DED000B9FED590B30EE480BA1
:101FF0009DED001B31EE000B8DED0E0B9FED568B12
:102000009DED0E0B20EE000B8DED000B20EE00CBB6
:10201000B0EE4C0B524806217844FFF77DFFB0EE3E
:1020200040BBB0EE4C0B4F4806217844FFF774FFDD
:102030009DED001B20EE012B9DED000B9DED0E1B79
:1020400020EE011B3BEE022BB0EE480B01EE020B23
:102050009DED002B02EE008B9FED430B01EE008BFC
:102060009DED0E0B30EE080BA74248DC01EE105A36
:10207000B8EEC11B20EE002B30EE013B82EE030BCD
:1020800030EE480B9DED0E2B32EE400BB0EE002BE8
:1020900000EE421B022000EAA670C0F1010000EE33
:1020A000100AB8EEC00B21EE000B04B0BDEC0A8B99
:1020B00005B0F0BDFFE7691C0E982143084306D028
:1020C000012D0FD09DED0E1B8AEE010BEDE79DED6E
:1020D0000E0B51EC100B00F063F841EC110B89EE84
:1020E000010BE2E79DED0E0B51EC100BFFF704FD29
:1020F000042808BF00F048F89DED0E0BD5E7012D30
:10210000D3D08DED000B002000909DED001B9DEDC8
:102110000E2B31EE421B38EE411B8AEE002B8DED6B
:10212000022B02909DED020B9DED003B00EE039B08
:1021300000EE019B02EE090BB7E700000000000073
:102140000000303E2894E53F182D4454FB21E93F20
:10215000075C143326A6813C00000000000000004C
:102160007402000092020000635555555555D53F45
:102170009FED031B81EE010B704700000000000083
:1021800000000000000000009FED030B20EE000B9C
:102190007047000000000000000000000000001078
:1021A00082B0CDE9000121F0004001909DED000BCF
:1021B00002B051EC100B70474FF04070E1EE100A86
:1021C000704700000000000000004054FB21F93F70
:1021D0003163621A61B4D03D0000601A61B4D03D31
:1021E0007370032E8A19A33B0000002E8A19A33BAB
:1021F000C14920259A837B390000000000000000BF
:102200006E83F9A22915444ED15727FCC0DD34F561
:10221000999562DB4190433CAB6351FE61C5BBDEE7
:102220003A6E24B7E0D24D42EA2E49061C92D109FB
:102230001CEB1DFE3EA729B1F53582E88444BB2E78
:1022400026709CE9417E5FB439D69139F4395383C5
:102250008B5F849C3B28F9BDFF97F81F0F9805DE24
:102260008B112FEF1F6D0A5ACF7E366DB709CB2722
:10227000663F464F2DEA5F9EC7BA27757BF1E5EBB7
:10228000F739073DEA92528AB15FFB6B085D8D1FFB
:102290007AFE10111111C13F37D60684F464963FBF
:1022A000280356C9226D6D3F0165F2F2D844433FC1
:1022B000A69237A0887E143F735360DBCB75F3BEC4
:1022C000FE41B31BBAA1AB3F93846EE9E326823F84
:1022D0001583E0FEC8DB573F68108D1AF726303FA4
:1022E000E9A7F0320FB8123FD47ABF74702AFB3ED0
:1022F00000000000010203040102030406070809AC
:1023000030230008000000244800000008030008F3
:10231000302300080000002000040000240300080F
:1023200078230008480000247802000024030008F5
:102330000100000010000000000000000090D00329
:102340000090D0030000000000000000000000002A
:102350002130654200000000000000000000000085
:10236000000000000000000000000000000000006D
:08237000000000000000000065
:04000005080002CD20
:00000001FF
